:020000040000FA
:100000000C9469000C9491000C9491000C94220CB7
:100010000C94220C0C94220C0C9491000C949100E2
:100020000C9491000C9491000C9491000C9491000C
:100030000C9491000C9491000C9491000C949100FC
:100040000C94D80B0C9491000C94A60B0C94800B80
:100050000C9491000C9491000C9491000C949100DC
:100060000C9491000C9491000000000024002700E3
:100070002A0000000008000201000003040700003D
:100080000000000000000A0B0C0D0E0F000102031F
:1000900004050000000023002600290000000000E5
:1000A000250028002B0004040404040404040202B4
:1000B00002020202030303030303010204081020E7
:1000C00040800102040810200102040810209A0C4C
:1000D000451311241FBECFEFD8E0DEBFCDBF24E013
:1000E000ACE8B1E001C01D92AE34B207E1F711E017
:1000F000A0E0B1E0E2E1FCE202C005900D92AC3874
:10010000B107D9F710E0C8E6D0E004C02197FE019E
:100110000E94F213C736D107C9F70E94D50D0C947F
:10012000FC150C9400008230910538F0880F991F5F
:10013000880F991F05970197F1F70895CF93DF93E3
:10014000CDB7DEB728970FB6F894DEBF0FBECDBF90
:10015000AC019CEC99839A839B839C839D831E8234
:100160001F8218869A01E1E021153105C9F061115D
:1001700003C04115510569F4D901A770BB27A15FE0
:10018000BE4F8C91A1E0B0E0AC0FBD1FAE0FB11D12
:100190008C9383E0369527958A95E1F7EF5FE4CF5E
:1001A000611102C0452BB9F4E62FF0E0E15FFE4F8C
:1001B0008081898329813A814B815C816D817E8137
:1001C0008F81988528960FB6F894DEBF0FBECDBFFD
:1001D000DF91CF910895F0E0E25FFE4F80818A8346
:1001E000E9CFFC01408151818281823038F081E089
:1001F000838380E051834083828308952091F803B4
:100200003091F903B901642375238091BA0290916A
:10021000BB026817790739F04091F5035091F60356
:100220008091F703E7CFC9018095909563E0880F2F
:10023000991F6A95E1F784239523892B41F083E088
:10024000220F331F8A95E1F727604223532385E06D
:10025000D1CF0895AF92BF92CF92DF92EF92FF92EB
:100260000F931F93CF93DF936C017B018B01040FDE
:10027000151FEB015E01AE18BF08C017D10759F07A
:100280006991D601ED91FC910190F081E02DC601BC
:100290000995892B79F7C501DF91CF911F910F91B6
:1002A000FF90EF90DF90CF90BF90AF900895FC014A
:1002B000538D448D252F30E0842F90E0821B930BCB
:1002C000541710F0CF96089501970895FC01918D71
:1002D000828D981761F0A28DAE0FBF2FB11D5D9674
:1002E0008C91928D9F5F9F73928F90E008958FEF16
:1002F0009FEF0895FC01918D828D981731F0828DCA
:10030000E80FF11D858D90E008958FEF9FEF089520
:10031000FC01918D228D892F90E0805C9F4F821B84
:1003200091098F73992708958FEE91E00E948801BB
:1003300021E0892B09F420E0822F089580E090E0ED
:10034000892B29F00E94940181110C9400000895DA
:10035000FC01A48DA80FB92FB11DA35ABF4F2C913A
:10036000848D90E001968F739927848FA689B78931
:100370002C93A089B1898C91837080648C93938D28
:10038000848D981306C00288F389E02D80818F7DCB
:1003900080830895EF92FF920F931F93CF93DF9383
:1003A000EC0181E0888F9B8D8C8D98131AC0E889B1
:1003B000F989808185FF15C09FB7F894EE89FF8980
:1003C0006083E889F98980818370806480839FBF1E
:1003D00081E090E0DF91CF911F910F91FF90EF901E
:1003E0000895F62E0B8D10E00F5F1F4F0F7311272E
:1003F000E02E8C8D8E110CC00FB607FCFACFE88969
:10040000F989808185FFF5CFCE010E94A801F1CF47
:10041000EB8DEC0FFD2FF11DE35AFF4FF0829FB7DC
:10042000F8940B8FEA89FB8980818062CFCFCF93CC
:10043000DF93EC01888D8823B9F0AA89BB89E8890C
:10044000F9898C9185FD03C0808186FD0DC00FB6B2
:1004500007FCF7CF8C9185FFF2CF808185FFEDCF30
:10046000CE010E94A801E9CFDF91CF91089583309A
:1004700081F028F4813099F08230A9F00895873016
:10048000A9F08830C9F08430B1F4809180008F7D6C
:1004900003C0809180008F7780938000089584B599
:1004A0008F7784BD089584B58F7DFBCF8091B00098
:1004B0008F778093B00008958091B0008F7DF9CF41
:1004C000CF93DF93282F30E0F901EE58FF4F84914E
:1004D000F901E654FF4FD491F901EA55FF4FC49159
:1004E000CC23A1F081110E943702EC2FF0E0EE0F37
:1004F000FF1FEE56FF4FA591B491EC91ED2381E0E3
:1005000090E009F480E0DF91CF91089580E090E0E1
:10051000FACF1F93CF93DF93282F30E0F901EE58E5
:10052000FF4F8491F901E654FF4FD491F901EA5548
:10053000FF4FC491CC23A9F0162F81110E943702DE
:10054000EC2FF0E0EE0FFF1FE456FF4FA591B491A2
:100550008FB7F894EC91111108C0D095DE23DC938D
:100560008FBFDF91CF911F910895DE2BF8CFCF93EE
:10057000DF9390E0FC01E654FF4F24918A559F4F92
:10058000FC0184918823D1F090E0880F991FFC0131
:10059000E859FF4FA591B491FC01E456FF4FC59176
:1005A000D49161110EC09FB7F8948C91E22FE09521
:1005B0008E238C932881E223E8839FBFDF91CF9124
:1005C00008958FB7F894EC91E22BEC938FBFF6CFA0
:1005D0003FB7F8948091D2019091D301A091D401BA
:1005E000B091D50126B5A89B05C02F3F19F0019603
:1005F000A11DB11D3FBFBA2FA92F982F8827BC017D
:10060000CD01620F711D811D911D42E0660F771FA4
:10061000881F991F4A95D1F708958F929F92AF92A4
:10062000BF92CF92DF92EF92FF926B017C010E940A
:10063000E8024B015C01C114D104E104F104B9F0FA
:100640000E94E802681979098A099B09683E73408B
:100650008105910580F321E0C21AD108E108F10873
:1006600088EE880E83E0981EA11CB11CE4CFFF9099
:10067000EF90DF90CF90BF90AF909F908F900895B4
:100680002FB7F8946091CE017091CF018091D00185
:100690009091D1012FBF08952091D8013091D901B7
:1006A0002817390771F49091D6018091D7019817D6
:1006B00041F0E091D601F0E0E357FE4F808190E0F9
:1006C00008958FEF9FEF08950895EF92FF920F9393
:1006D0001F93CF93DF93DC015C96ED90FC905D97C8
:1006E000E114F10479F481E090E013969C938E93E9
:1006F000129790E080E0DF91CF911F910F91FF90D2
:10070000EF9008955196ED91FC91529750968C91EF
:100710005097982F90950FB75E962C915E97122F59
:10072000127021FD6095F8942081112319F1282B76
:100730002083E7012197F1F728E0462F50E0308130
:1007400060FF1AC0382B3083E7012197F1F7BA0117
:1007500075956795215089F7112381F08081892350
:1007600080830FBF5C968D919C910197F1F781E09A
:1007700090E0C1CF2923DCCF3923E5CF9081892BAD
:10078000EFCF2091D8013091D9012817390771F4A2
:100790008091D7012091D60190E0805C9F4F821B11
:1007A000910960E470E00E94DE13089590E080E01B
:1007B00008952091D8013091D90128173907B9F44B
:1007C0009091D6018091D701981789F0E091D601D8
:1007D000F0E0E357FE4F80812091D60130E02F5F9B
:1007E0003F4F2F7333272093D60190E008958FEF6A
:1007F0009FEF08950F931F930E944003609333046B
:100800007093340480933504909336048BE294E023
:100810000E94D90397FF1DC00E944003009133043A
:10082000109134042091350430913604601B710B13
:10083000820B930B00912F0410913004209131040E
:10084000309132046017710782079307F8F28FEF37
:100850009FEF1F910F91089590E080E00895CF934E
:10086000CFB7F89480918C01811127C0E0EBF0E0C4
:100870008491E4ECF0E09491E82FF0E0EE0FFF1F9C
:10088000E859FF4FA591B491EC91E92321F461E07F
:100890008AE00E94890261E08AE00E94B7028CB57A
:1008A00080618CBD8CB580648CBD61E08DE00E9460
:1008B000B70261E08BE00E94B70280918C018F5FEC
:1008C00080938C01CFBFCF910895FC0120813181AD
:1008D000828193812817390719F0822F0C9489029D
:1008E0000895CF93DF93EC018A810E948902898D5C
:1008F0009A8DDF91CF910C94930061E00C94710478
:100900008EBD00000DB407FEFDCF8EB5089520E02A
:10091000009761F0382F37703150353060F433E094
:10092000969587953A95E1F72F5FF2CF81E02530D4
:1009300008F080E0089580E0FACFFC0101900020EB
:10094000E9F73197AF01481B590BBC018FEE91E0DD
:100950000C942A01CF93DF930E949D04EC018AE35B
:1009600091E00E949D048C0F9D1FDF91CF9108950F
:100970008F929F92AF92BF92CF92DF92FF920F938E
:100980001F93CF93DF9361E080911D040E94890241
:100990006AEF70E080E090E00E940D030E94400347
:1009A000009120041091210420912204309123040D
:1009B000601771078207930740F410922004109289
:1009C0002104109222041092230420912404211166
:1009D00012C0009120041091210420912204309132
:1009E0002304601B710B820B930B603D77408105E4
:1009F000910508F4A9C0109224040E94400360935A
:100A00002004709321048093220490932304109275
:100A10001B0410921A0410921904109218041092D8
:100A2000170461E080911D040E94B70260E080918C
:100A30001D040E9489026AE070E080E090E00E945C
:100A40000D0361E080911D040E9489028BE990E012
:100A50000197F1F760E080911D040E94B702809138
:100A60001D040E946002892B29F08DE391E00E9411
:100A7000AA04F5CF8BE391E00197F1F780911D0473
:100A80000E946002892B29F48DE591E00E94AA045E
:100A9000F5CF8BE391E00197F1F707E114E08CE1EA
:100AA000C82E84E0D82E93E7A92EB12C88248394F5
:100AB000912CC7E0D0E0F12C80911D040E946002CF
:100AC000892BD1F3C5010197F1F780911D040E9494
:100AD0006002892B39F0C4010C2E01C0880F0A94E2
:100AE000EAF7F82A80911D040E946002892BD1F751
:100AF000219710F7F801F1928F01CE16DF06C9F6A3
:100B00008091170490911804890F9927991F40919B
:100B10001904840F911D40911A04480F592F511D3B
:100B200020911B0430E081E04217130609F080E0B9
:100B3000DF91CF911F910F91FF90DF90CF90BF90E9
:100B4000AF909F908F90089581E0F2CFEF92FF9247
:100B50000F931F93CF93DF937C010091BC0210E0B1
:100B6000E8012897FC0196818CE6890F833008F014
:100B70009BC0943919F588E0E3E9F2E0A9E5B3E018
:100B800001900D928A95E1F7AE016BE972E08091D8
:100B90006303909164030E94DA15D0936203C093BB
:100BA00061038091600381508093600381E0DF9155
:100BB000CF911F910F91FF90EF90089520916103C5
:100BC00030916203AE01420F531F4139510520F0AD
:100BD0001092600380E0EBCF809160038823D1F313
:100BE000963919F097818913F5CF40915D035091A3
:100BF0005E03F701848195814817590759F7809161
:100C0000630390916403AE016BE972E0820F931F5E
:100C10000E94DA158091610390916203C80FD91F79
:100C2000D0936203C0936103F7018681863909F08E
:100C3000B8CF10926003878180935F03833809F4F3
:100C400048C0A0915703B09158038DE493E08A1BEC
:100C50009B0B8C179D0708F4BDCF8AE0E9E5F3E014
:100C600001900D928A95E1F7809157039091580376
:100C7000609163037091640340916103509162033A
:100C80000A960E94DA152091610330916203265F73
:100C90003F4F8091570390915803820F931F909379
:100CA00058038093570382CF9338A9F488E0E3E98F
:100CB000F2E0A9E5B3E001900D928A95E1F78BE9A6
:100CC00092E09093640380936303D0936203C09394
:100CD000610382E06CCFA0915703B0915803CD011E
:100CE0008D5B92408C0F9D1F8B39910508F072CF60
:100CF00088E0E3E9F2E001900D928A95E1F7E09156
:100D00005703F0915803D187C08780915703909182
:100D10005803AE016BE972E00A960E94DA150E5F85
:100D20001F4F8091570390915803080F191F10937C
:100D30005803009357033ACF0F931F93FC0104818C
:100D400015812681378140E052E16AE770E090E04A
:100D5000041715072607370740F4769567955795CA
:100D600047959F5F9630A1F797E0292F206A269537
:100D7000909591702CBD9DBD60E0CF011F910F91AA
:100D80000C9471040F931F93CF93DF93EC01062F04
:100D9000142F0E949C06802F80620E948004888706
:100DA000812F0E948004CE01DF91CF911F910F917E
:100DB0000C947D04FC01428941FD09C04260428BD4
:100DC00060E00E94C2068BE19EE40197F1F708956E
:100DD0008AEF93E00E949C0680E50E948004809345
:100DE000020483E70E9480048AEF93E00C947D0460
:100DF0001F93CF93DF93EC01162F0E949C06812F47
:100E000080620E9480048887CE01DF91CF911F917C
:100E10000C947D04DF92EF92FF920F931F93CF9378
:100E2000DF938C01C62FD42EE52EF22E0E949C0655
:100E30008C2F80620E948004F8018087CD2DDE2DEA
:100E4000FA94FFEFFF1621F089910E948004F8CFF9
:100E5000C801DF91CF911F910F91FF90EF90DF902C
:100E60000C947D041F93CF93DF93EC01162F0E9407
:100E70009C06812F0E94800488878FEF0E94800447
:100E8000182FCE010E947D04812FDF91CF911F91F9
:100E900008951F93CF93DF93EC01162F61E00E941A
:100EA0003207112351F0182F1160412F61E0CE015C
:100EB000DF91CF911F910C94C206182F1E7F8B8556
:100EC000882399F36DE1CE010E943207482F4D6FC0
:100ED0006DE1CE010E94C2061B86E7CF4F925F9262
:100EE0006F927F928F929F92AF92BF92CF92DF923A
:100EF000EF92FF92CF93DF93EC014A015B010E94D6
:100F000040036B017C01240135018FE5480E511C23
:100F1000611C711C67E1CE010E94320784FD42C052
:100F2000888584FF30C040E167E0CE010E94C206A0
:100F300060E0CE010E94650461E0CE010E9465047C
:100F40000E9440036C197D098E099F096815790577
:100F50008A059B05C0F060E0CE010E94650461EE49
:100F6000CE010E94F80680E0DF91CF91FF90EF90D4
:100F7000DF90CF90BF90AF909F908F907F906F90B9
:100F80005F904F9008950E9440036C197D098E096F
:100F90009F09461657066806790608F0BBCF81E020
:100FA0008C8BE1CF60E0CE010E94650481E0DCCF54
:100FB0008F929F92AF92BF92EF92FF920F931F93E7
:100FC000CF93DF93CDB7DEB728970FB6F894DEBF87
:100FD0000FBECDBF7C01B62EA42E8091B60282FD3D
:100FE0002FC00091B7021091B80260E0C8010E94C2
:100FF0006504F801858996890E949300F80183852C
:10100000882321F061EEC8010E94F806F8014289A8
:101010004E7F428B60E0C8010E94C20662E0C801B8
:101020000E943207ECE8F0E0E49141E050E001C0BA
:10103000440FEA95EAF7482B62E0C8010E94C20615
:101040008091B7029091B80260E0A11001C061E008
:101050000E9449070091B7021091B8026B2DC70199
:101060000E949E0029833A834B835C836D837E8339
:101070008F839887F8012189AE014F5F5F4F6AE047
:10108000C8010E940A07F8012189AE014F5F5F4F36
:1010900060E1C8010E940A07E090B702F090B80230
:1010A0001091BC020E9440034B015C016FEFC7012D
:1010B0000E94F806F701808580FF12C084FD0EC0F3
:1010C0000E944003681979098A099B0960367105F5
:1010D0008105910558F381E0F701848B10E031C060
:1010E0008285811119C00185011708F4102F011B99
:1010F000C7010E949C0680EA0E948004F701808755
:1011000083E9A82E82E0B82E115068F0F501819194
:101110005F010E948004F8CF01E0111100E011325C
:1011200038F310E2E5CF015020F080E00E94800407
:10113000FACFC7010E947D0461E0C7010E946504E7
:1011400011E08091B60282FD16C040918D0250914F
:101150008E0260918F02709190028091B7029091FF
:10116000B8020E946E07182F60E08091B70290913C
:10117000B8020E944907812F28960FB6F894DEBF67
:101180000FBECDBFDF91CF911F910F91FF90EF90D8
:10119000BF90AF909F908F900895CF93DF93EC0115
:1011A0000E94DA064A8941604A8B60E0CE010E94C3
:1011B000C20640E767E0CE010E94C20661E0CE01B0
:1011C0000E9465048C85882351F0AE01445F5F4F17
:1011D00029896AE0CE01DF91CF910C940A0762E081
:1011E000CE010E943207ECE8F0E0E49121E030E02B
:1011F00001C0220FEA95EAF72095422F482362E0CA
:10120000CE01DF91CF910C94C206CF92DF92EF9284
:10121000FF920F931F93CF93DF9300D000D01F92C4
:10122000CDB7DEB78C01F62E8034910549F08830B9
:10123000910531F00E948704E82E882309F45FC0ED
:101240008091990281548D831C821B821A830983A9
:10125000FB82CE0101960E94F10081E0F8120EC0DF
:1012600089819A810817190749F49D819F3730F4C5
:1012700062E070E080E090E00E940D034C816B81A1
:1012800089819A810E94D80791E0F91247C088238A
:1012900009F446C089819A8108171907F9F48D81EC
:1012A0008F37E0F481EC80939902809193029091C2
:1012B000940290939602809395029A838983FB828D
:1012C0001C82CE0101960E94F10088E08093BC024E
:1012D0004C816B8189819A810E94D80789819A818A
:1012E00008171907F9F4EE24E3948091B60282FD01
:1012F00006C08091B7029091B8020E94CD088E2D51
:101300000F900F900F900F900F90DF91CF911F9142
:101310000F91FF90EF90DF90CF9008958111DECF75
:10132000E12CE3CFFF2019F093E0F912DCCF8D819F
:101330008F37C8F68091B60282FF1AC040918D02A5
:1013400050918E0260918F02709190028091B7024D
:101350009091B8020E946E078091B6028B7F8093B5
:10136000B60260E08091B7029091B8020E944907EE
:101370008091B7029091B8020E94CD080E9440036C
:101380006B017C010E94DB09813C09F4ACCF0E9417
:101390004003AB01BC014C195D096E097F098091C6
:1013A000910290919202B0E0A0E084179507A60701
:1013B000B70740F7B5CF3F924F925F926F927F92FF
:1013C0008F929F92AF92BF92CF92DF92EF92FF9255
:1013D0000F931F93CF93DF930E9440034B015C0157
:1013E000C0E044244394512CFBE76F2EF5E27F2E9E
:1013F000A4E2CA2EA9E0DA2E0091B7021091B80239
:101400006FEFC8010E94F806F801808590E095957D
:1014100087958770863090F40E9440036819790997
:101420008A099B090091B7021091B802693E734086
:1014300081059105B0F081E0F801848B8C2FDF915C
:10144000CF911F910F91FF90EF90DF90CF90BF90C1
:10145000AF909F908F907F906F905F904F903F9054
:10146000089560E6C8010E943207D82F813258F0F3
:1014700062EEC8010E94F80662E070E080E090E051
:101480000E940D03D0E0D093BC020091B7021091EE
:10149000B802F8018285312C811105C031843D16D6
:1014A00008F4D32D3D1AC8010E949C0681E60E94D3
:1014B0008004F801808763E9E62E62E0F62ED150C1
:1014C00038F08FEF0E948004F70181937F01F7CFFE
:1014D0003A94FFEF3F1621F08FEF0E948004F8CF7F
:1014E000C8010E947D0440E467E0C8010E94C20672
:1014F0008091BC02883008F47FCF00919502109152
:1015000096020034110549F00830110531F0C80188
:101510000E948704882309F46FCFE0909302F09033
:10152000940220E4E216F10451F038E0E316F104ED
:1015300031F0C7010E948704882309F45DCFC09170
:1015400099028091BA029091BB0208171907E1F540
:10155000C23809F451CFC03869F404321940D9F0C7
:10156000D0929602C092950262E084E299E00E94D5
:10157000050942CFC33C79F40115110561F01093C0
:10158000940200939302109296021092950260E0EA
:1015900090E080E0ECCF8091B502882351F0C7FF46
:1015A0000AC08CE68C0F833030F0C33809F046CF88
:1015B00002C0C13CB1F383E992E00E94A6058230EB
:1015C00009F01ACFC3E83ACF0034110509F069C019
:1015D000C23C01F52091B60223FD1AC0843259E0C5
:1015E0009507B1F0F0929602E092950290939402E2
:1015F000809393026091F70370E090E080E00E9496
:101600000D0362E080919502909196020E94050977
:10161000C0E0F2CE83E992E00E94A605D82F809127
:101620008C028823B9F18091BA029091BB029C018F
:1016300053E0369527955A95E1F7232B19F0F301DE
:101640003197F1F783709927FC0128E532E0E29F9A
:10165000C001E39F900DF29F900D11240E94930012
:101660008091B9028823D1F08150990B9C01220FFF
:10167000331F820F931FA20102C0440F551F8A958A
:10168000E2F7CA0164E023E0880F991F2A95E1F789
:101690000E940509D23009F0AFCE94CF90E080E0EF
:1016A000F1CF8432994009F4A7CE61E0C801AECFF2
:1016B0000F931F93CF93DF93EC018881998100975B
:1016C00059F02A813B812617370730F081E0DF91FE
:1016D000CF911F910F9108958B016F5F7F4F0E94F3
:1016E0001D15009759F0998388831B830A832C81E9
:1016F0003D81232B59F7FC011082E8CF80E0E7CF32
:101700001F920F920FB60F9211242F933F934F9376
:101710005F936F937F938F939F93AF93BF93EF9359
:10172000FF938FEE91E00E94A801FF91EF91BF918E
:10173000AF919F918F917F916F915F914F913F9169
:101740002F910F900FBE0F901F9018951F920F9220
:101750000FB60F9211242F938F939F93EF93FF93C4
:10176000E091FF01F09100028081E0910502F0918B
:10177000060282FD1BC09081809108028F5F8F73EB
:1017800020910902821741F0E0910802F0E0E15156
:10179000FE4F958F80930802FF91EF919F918F915B
:1017A0002F910F900FBE0F901F9018958081F4CF4E
:1017B0001F920F920FB60F9211242F933F938F9386
:1017C0009F93AF93BF938091CE019091CF01A09151
:1017D000D001B091D1013091CD0123E0230F2D37FD
:1017E00058F50196A11DB11D2093CD018093CE0126
:1017F0009093CF01A093D001B093D1018091D201F9
:101800009091D301A091D401B091D5010196A11D71
:10181000B11D8093D2019093D301A093D401B093D2
:10182000D501BF91AF919F918F913F912F910F90D3
:101830000FBE0F901F90189526E8230F0296A11D4A
:10184000B11DD2CF1F920F920FB60F9211242F937A
:101850003F934F935F936F937F938F939F93AF9338
:10186000BF93EF93FF93E091D801F091D9013097A6
:1018700049F0A685B7858585968D91FF14C09C910A
:101880008923A1F4FF91EF91BF91AF919F918F9127
:101890007F916F915F914F913F912F910F900FBE6C
:1018A0000F901F9018959C91892361F7A389B489A3
:1018B0009C918589809589238C9386899789019746
:1018C000F1F7608D718DA685B785558538E020E0EC
:1018D000CB010197F1F7822F90E095958795282FFE
:1018E0004C91452309F02068315091F7868D81FD98
:1018F00020958091D70190E001968F7399273091C0
:10190000D601381799F0A091D701B0E0A357BE4F88
:101910002C938093D701828D938D0197F1F7A38942
:10192000B4898C919589892B8C93ACCF868D8160FD
:10193000868FF1CF1092F2011092F10188EE93E0C0
:10194000A0E0B0E08093F3019093F401A093F5013F
:10195000B093F6012AE131E03093F0012093EF01DA
:1019600025EC30E03093FC012093FB0124EC30E0C7
:101970003093FE012093FD0120EC30E03093000213
:101980002093FF0121EC30E030930202209301020A
:1019900022EC30E0309304022093030226EC30E086
:1019A0003093060220930502109208021092090259
:1019B00010920A0210920B0210922E0410922D0423
:1019C00080932F0490933004A0933104B093320499
:1019D0008CE291E090932C0480932B0410924204AB
:1019E0001092410410924404109243041092460451
:1019F00010924504109248041092470460914904E3
:101A00006E7F6D7F609349046695617081E0682701
:101A100082E10E94890261E082E10E94B702ECEC5F
:101A2000F0E0E491E0933B04E8EBF0E0E491F0E0D7
:101A3000EE0FFF1FE456FF4F8591949190933D0464
:101A400080933C0460E083E10E94B70280914904E6
:101A500081FD04C061E083E10E94890283E18093FB
:101A60003704EDECF0E0E491E0933804E9EBF0E0CA
:101A7000E491F0E0EE0FFF1FEE56FF4F8591949139
:101A800090933A048093390410922604109225040E
:101A9000109228041092270410922A04109229040C
:101AA00061E070E085E294E00E94580B20912504EB
:101AB0003091260481116DC02115310519F0C9013D
:101AC0000E949414109226041092250410922A0465
:101AD00010922904109228041092270487E0809322
:101AE0001D0485E180931E0486E080931F0481E03D
:101AF0008093240429E030E03093FB032093FA0321
:101B00002AE030E03093FD032093FC0340E856E9DF
:101B100068E970E04093FE035093FF036093000474
:101B20007093010490E2909303048093040485E091
:101B300080930B0410920D0485E090E0A0E0B0E0EB
:101B40008093130490931404A0931504B093160487
:101B5000109206048AEF93E09093B8028093B70244
:101B60008DEB92E0909358038093570385E693E0C2
:101B7000909364038093630389E593E09093B402A8
:101B80008093B3021092B6021092B50210928C02AA
:101B9000089581E090E090932A04809329046DE7F2
:101BA00071E0C9010E94F51599CFCF93DF93CDB7AE
:101BB000DEB76F970FB6F894DEBF0FBECDBF789437
:101BC00084B5826084BD84B5816084BD85B5826042
:101BD00085BD85B5816085BD80916E0081608093F3
:101BE0006E0010928100809181008260809381005C
:101BF000809181008160809381008091800081606C
:101C0000809380008091B10084608093B1008091C6
:101C1000B00081608093B00080917A0084608093EE
:101C20007A0080917A00826080937A0080917A00B5
:101C3000816080937A0080917A00806880937A0036
:101C40001092C100E091FF01F091000282E08083D8
:101C5000E091FB01F091FC011082E091FD01F09117
:101C6000FE018FEC808310920702E0910302F09155
:101C7000040286E08083E0910102F09102028081FB
:101C800080618083E0910102F0910202808188608E
:101C90008083E0910102F09102028081806880835C
:101CA000E0910102F091020280818F7D8083109289
:101CB000460410924504109244041092430410927A
:101CC0004204109241048DE991E09093480480937E
:101CD000470490913704963108F047C02DEB30E06F
:101CE00030934204209341042BE931E030934404C3
:101CF000209343042CE231E03093460420934504C2
:101D00002091680084E0983048F031E09E3008F47B
:101D100030E081E001C0880F3A95EAF7822B80938A
:101D200068002DE630E0983050F02BE630E09E3031
:101D300030F02CE630E0963110F030E020E03093C7
:101D40003F0420933E04292F30E0983008F094C1DE
:101D500081E001C0880F9A95EAF780934004809152
:101D60004704909148040197F1F7809145049091C0
:101D70004604892B49F1E091D801F091D90164E042
:101D8000EB32F60709F1309739F0A389B4899C91B9
:101D90008589809589238C93809149048E7F8093D7
:101DA00049041092D7011092D6018BE294E09093EF
:101DB000D9018093D801E0913E04F0913F048081E5
:101DC00090914004892B808360E080911D040E94E3
:101DD000B70261E080911D040E94890210922004E4
:101DE0001092210410922204109223040E942F04C6
:101DF0000E942F048091FA039091FB032091FC0331
:101E00003091FD038217930741F061E00E94B70211
:101E100061E08091FC030E94B7020E942F0460E001
:101E20008AEF93E00E94650461E08AEF93E00E94EC
:101E3000710465E070E080E090E00E940D034FE5E2
:101E400064E08AEF93E00E94C20666E08AEF93E0C6
:101E50000E94320745E550E060E070E040930F04D7
:101E6000509310046093110470931204482F477D1F
:101E700066E08AEF93E00E94C20666E08AEF93E094
:101E80000E9432076DE18AEF93E00E943207182F1B
:101E90000E94E8066DE18AEF93E00E94320791E02C
:101EA000181390E090930D04882351F0181302C08A
:101EB0000E94E80640E06DE18AEF93E00E94C206CE
:101EC0001092050440E06CE18AEF93E00E94C206A4
:101ED000109204044FE361E08AEF93E00E94C2068F
:101EE00040E062E08AEF93E00E94C20680E28093C5
:101EF000030411E140910304612F8AEF93E00E94F3
:101F0000C2061F5F1731B1F743E063E08AEF93E049
:101F10000E94C20685E080930B044CE465E08AEFE2
:101F200093E00E94C20640E767E08AEF93E00E94D8
:101F3000C20662EE8AEF93E00E94F80661EE8AEF35
:101F400093E00E94F8064CE060E08AEF93E00E9484
:101F5000C20660E08AEF93E00E94320780930C048F
:101F60008AEF93E00E94DA0681E090E00E94870405
:101F7000882309F4FCC081E090E09093BB02809339
:101F8000BA028091B7029091B802FC0120813181A0
:101F90002F3F310509F4EBC0228133812F3F3105FA
:101FA00009F4E5C04AE565E00E94C2064FE361E03E
:101FB0008091B7029091B8020E94C20660E08091C1
:101FC000B7029091B8020E9449070091B7021091A0
:101FD000B8026DE1C8010E943207482F44606DE1EC
:101FE000C8010E94C2066CE1C8010E943207482F56
:101FF0004F636CE1C8010E94C20681E0F80182874C
:102000008091BA029091BB0266E070E00E94CA1310
:10201000482F440F4B5FF0E14F9FA0011124456012
:1020200064E08091B7029091B8020E94C20689E1F3
:1020300090E0A0E0B0E080938D0290938E02A09398
:102040008F02B09390028BE490E090939202809381
:1020500091022091BA023091BB0240E08FEF9FEFD6
:10206000B90168237923672BA1F0F3E0880F991F4A
:10207000FA95E1F74F5FF4CF9E3040F428503109D4
:1020800081E001C0880F2A95EAF767CE2E5031090A
:10209000F7CF4093B902809590959093F903809380
:1020A000F803E3E096958795EA95E1F7A9014823BF
:1020B00059235093F6034093F503009759F063E0DA
:1020C000369527956A95E1F773E0969587957A9509
:1020D000E1F7F3CF2093F70356E0F52EFA94009141
:1020E000B7021091B8026FEFF61609F43DC06F2DDC
:1020F00081E090E00E949E002A8B3B8B4C8B5D8B95
:102100006E8B7F8B888F998FAF2CB12CC5018A572E
:102110009F4F6C01F110B1C2F801418950E0BE013E
:102120006E5E7F4FC8010C960E94DA15F60164912D
:10213000F8012189AE014E5E5F4FC8010E940A0777
:1021400062E0C8010E943207F501E457FF4FE491B5
:1021500041E050E001C0440FEA95EAF7482B62E005
:10216000C8010E94C206BACFC8010E94CD0866E02D
:102170008AEF93E00E943207877D41E450E060E0FF
:1021800070E040930F045093100460931104709317
:102190001204482F486066E08AEF93E00E94C2066E
:1021A00066E08AEF93E00E94320761E085E00E94DA
:1021B000B70261E084E00E94B70261E087E00E941C
:1021C000B70261E086E00E94B70261E080E10E9410
:1021D000B70261E08EE00E94B70261E08EE00E94EB
:1021E000890261E080E10E94890249E050E060E0FC
:1021F00071E08BE294E00E942A0143EE642E41E0FC
:10220000742E0AED11E00E94FA0397FD06C0F80152
:1022100081938F016E167F06B1F74091E2018091A4
:10222000DB019091DC01682F690F7727771F809180
:10223000DD01860F972F911D2091DE01820F911DE8
:102240002091DF01280F392F311D8091E001280FE7
:10225000311D8091E101820F932F911D9195819500
:10226000910999274817190609F04CC08FE791E0AA
:102270000E94AA0481E08093EE018093E3019AE931
:10228000292E312CCE0101967C012BE9C22E2FE0A4
:10229000D22E3BEBA32E3DE5B32E80E0482E80E00E
:1022A000582E0E94DB0980905703909058039DEBB5
:1022B000891692E0990699F190F10091C50210916A
:1022C000C602A8010930110510F048E050E067ECA3
:1022D00072E086EE91E00E94DA1586EF9FEF801B98
:1022E000910B880E991E9092580380925703A1017A
:1022F000401B510BB80169537D4F8DEB92E00E945A
:10230000E315D1CF8BE294E00E94C10318161906A1
:102310000CF0B0CF8BE294E00E94D903F3CFE1E45C
:10232000E0937C0080917A00806480937A008091B1
:102330007A0086FDFCCF9091780080917900892702
:10234000982789279093E5018093E4010E94B804BF
:10235000882341F080911E048B3041F018F08551A4
:10236000823020F082E891E00E949D040E94B8042F
:10237000882341F080911E048B3041F018F0855184
:10238000823020F082E891E00E949D0449E050E014
:1023900060E071E08BE294E00E942A010AED11E016
:1023A0000E94FA0397FD06C0F80181938F016E1613
:1023B0007F06B1F78091DC019091DD011B8E1A8EB2
:1023C0001D8E1C8E1F8E1E8E4AE0B701982789270E
:1023D00098270E946913F70101900020E9F73197CF
:1023E0008F010E191F09B801CE014A960E94580BA1
:1023F0002A8D3B8D8111A8C02115310519F0C90125
:102400000E9494141B8E1A8E1F8E1E8E1D8E1C8E83
:102410008091250490912604009709F49EC06A8D4E
:102420007B8D6115710509F496C040912704509188
:1024300028042E8D3F8D4217530708F48CC00E944C
:10244000F5158E8D9F8D90932A04809329041F8EFD
:102450001E8E8A8D9B8D009711F00E94941480919E
:10246000EA019091EB018130910509F08DC08091D6
:10247000E4019091E5018536910564F18091E301D5
:10248000811128C060E080E10E94890260E084E060
:102490000E94890208E21AE061E085E00E94890258
:1024A000C6010197F1F760E085E00E948902C6014C
:1024B0000197F1F70150110979F768EB7BE080E0B3
:1024C00090E00E940D0361E080E10E94890281E0BA
:1024D0008093E3018091EE01882309F48DC08091FF
:1024E000EC019091ED01019739F08091E801909114
:1024F000E901029709F0B5C060E08EE00E94890210
:1025000060E086E00E9489020CE211E061E087E071
:102510000E948902C5010197F1F760E087E00E94FF
:102520008902C5010197F1F70150110979F768EBAC
:102530007BE080E090E00E940D0361E08EE00E946D
:1025400089021092EE01CBCF1F8F0E8FB701C90108
:102550000E94F5155DCF0E9494148A8D9B8D9093F7
:102560002604809325048C8D9D8D90932804809360
:1025700027048E8D9F8D90932A04809329041B8EAF
:102580001A8E1D8E1C8E63CF892B09F0A3CF8091EC
:10259000E4019091E501853691050CF09BCF809187
:1025A000E301882309F496CF60E080E10E9489026C
:1025B00061E084E00E94890208E918E061E085E0BA
:1025C0000E948902C6010197F1F760E085E00E9450
:1025D0008902C6010197F1F70150110979F768EBFB
:1025E0007BE080E090E00E940D0361E080E10E94CA
:1025F00089021092E3016ECF8091EC019091ED0180
:10260000892B31F08091E8019091E901019749F51A
:1026100060E08EE00E94890261E086E00E9489020B
:102620000CE211E061E087E00E948902C501019798
:10263000F1F760E087E00E948902C5010197F1F798
:102640000150110979F768EB7BE080E090E00E948F
:102650000D0361E08EE00E94890281E08093EE012B
:10266000CBCF4114510409F41CCE0E94940188235D
:1026700009F417CE0E94000010CEF1E0FF1609F415
:1026800055CDF601649121E055CD809125049091BE
:102690002604009711F00E9494148CE291E090932C
:1026A0002C0480932B048091D8019091D9018B52F6
:1026B000944071F4E0913E04F0913F049081809148
:1026C00040048095892380831092D9011092D8010B
:1026D0000895BB27FB015527AA27880F991FAA1F1A
:1026E000A41710F0A41B83955051B9F7A05DAA332D
:1026F00008F0A95DA193009779F7B111B1931192F8
:10270000CB010C948313DC01FC01672F71917723BB
:10271000E1F7329704C07C916D9370836291AE179C
:10272000BF07C8F308952F923F924F925F926F9226
:102730007F928F929F92AF92BF92CF92DF92EF9251
:10274000FF920F931F93CF93DF93CDB7DEB7CA1BD2
:10275000DB0B0FB6F894DEBF0FBECDBF09942A88FD
:10276000398848885F846E847D848C849B84AA84A5
:10277000B984C884DF80EE80FD800C811B81AA8132
:10278000B981CE0FD11D0FB6F894DEBF0FBECDBFFD
:10279000ED010895AA1BBB1B51E107C0AA1FBB1F77
:1027A000A617B70710F0A61BB70B881F991F5A95DD
:1027B000A9F780959095BC01CD01089597FB072E50
:1027C00016F4009407D077FD09D00E94CA1307FCC5
:1027D00005D03EF4909581959F4F08957095619531
:1027E0007F4F0895EE0FFF1F0590F491E02D09949F
:1027F0000F931F93CF93DF938230910510F482E003
:1028000090E0E0914C04F0914D0430E020E0B0E025
:10281000A0E0309799F42115310509F44AC0281B2E
:10282000390B24303105D8F58A819B8161157105FA
:1028300089F1FB0193838283FE0111C040815181A4
:102840000281138148175907E0F04817590799F496
:10285000109761F012960C93129713961C93329670
:10286000CF01DF91CF911F910F91089500934C04F8
:1028700010934D04F4CF2115310551F04217530741
:1028800038F0A901DB019A01BD01DF01F801C1CFD8
:10289000EF01F9CF90934D0480934C04CDCFFE010E
:1028A000E20FF31F819391932250310939832883DA
:1028B000D7CF20914A0430914B04232B41F420912F
:1028C0000B0130910C0130934B0420934A0420916A
:1028D000090130910A012115310541F42DB73EB7A8
:1028E00040910D0150910E01241B350BE0914A04DB
:1028F000F0914B04E217F307A0F42E1B3F0B2817AF
:10290000390778F0AC014E5F5F4F2417350748F068
:102910004E0F5F1F50934B0440934A048193919351
:102920009FCFF0E0E0E09CCFCF93DF930097E9F0FA
:10293000FC01329713821282A0914C04B0914D0495
:10294000ED0130E020E01097A1F420813181820F69
:10295000931F20914A0430914B042817390709F03E
:1029600061C0F0934B04E0934A04DF91CF91089546
:10297000EA01CE17DF07E8F54A815B819E01411528
:102980005105B1F7E901FB83EA8349915991C40FDD
:10299000D51FEC17FD0761F4808191810296840FA9
:1029A000951FE90199838883828193819B838A8320
:1029B000F0E0E0E012968D919C9113970097B9F5A5
:1029C0002D913C911197CD010296820F931F20917A
:1029D0004A0430914B042817390739F6309751F5DE
:1029E00010924D0410924C04B0934B04A0934A04EF
:1029F000BCCFD383C28340815181840F951FC817F8
:102A0000D90761F44E5F5F4F88819981480F591F44
:102A1000518340838A819B81938382832115310571
:102A200009F0B0CFF0934D04E0934C049ECFFD012C
:102A3000DC01C0CF13821282D7CFB0E0A0E0E3E286
:102A4000F5E10C9495138C01009751F4CB010E9491
:102A5000F8138C01C801CDB7DEB7E0E10C94B113D7
:102A6000FC01E60FF71F9C0122503109E217F30722
:102A700008F49DC0D901CD91DC911197C617D707F5
:102A800098F0C530D10530F3CE010497861797072B
:102A900008F3C61BD70B2297C193D1936D937C93F8
:102AA000CF010E949414D6CF5B01AC1ABD0A4C0131
:102AB0008C0E9D1EA0914C04B0914D04512C412CC4
:102AC000F12CE12C109731F580914A0490914B0440
:102AD0008815990509F05CC04616570608F058C0DD
:102AE0008091090190910A01009741F48DB79EB73A
:102AF00040910D0150910E01841B950BE817F907C9
:102B000008F055C0F0934B04E0934A04F901718337
:102B10006083A0CF8D919C91119712966C90129723
:102B200013967C901397A815B90559F56C0142E0EE
:102B3000C40ED11CCA14DB0420F1AC014A195B0994
:102B4000DA011296159780F0628273825183408376
:102B5000D9016D937C93E114F10471F0D7011396C0
:102B6000FC93EE93129776CF22968C0F9D1FF9015E
:102B700091838083F301EFCFF0934D04E0934C04F5
:102B800069CF4816590608F42C017D01D3019ACF6C
:102B9000CB010E94F8137C01009749F0AE01B80107
:102BA0000E94DA15C8010E949414870153CF10E0E7
:102BB00000E050CFFB01DC0102C001900D924150BA
:102BC0005040D8F708956817790768F4FB01DC01D5
:102BD000E40FF51FA40FB51F02C002900E924150E2
:102BE0005040D8F708950C94DA15FB01DC010190F0
:102BF0000D920020E1F7089510E0C8E6D0E004C08F
:102C0000FE010E94F2132196C936D107C9F7F89444
:102C1000FFCFFF018600000000007900004E048015
:102C200000C33C33CE3EE3EC00000000CA012A01A1
:102C300057011702880166017A0100000000650350
:102C40002A012C046403C103D9034C030D0A006458
:102C50006874313120737461727420636F6E6469BB
:102C600074696F6E2031206E6F74206D657400641E
:102C70006874313120737461727420636F6E64699B
:102C800074696F6E2032206E6F74206D6574002041
:0E2C9000004F4B0052656164206661696C0064
:107E0000112484B714BE81FFF0D085E080938100F7
:107E100082E08093C00088E18093C10086E0809377
:107E2000C20080E18093C4008EE0C9D0259A86E02C
:107E300020E33CEF91E0309385002093840096BBD3
:107E4000B09BFECF1D9AA8958150A9F7CC24DD24C4
:107E500088248394B5E0AB2EA1E19A2EF3E0BF2EE7
:107E6000A2D0813461F49FD0082FAFD0023811F036
:107E7000013811F484E001C083E08DD089C08234E0
:107E800011F484E103C0853419F485E0A6D080C0E4
:107E9000853579F488D0E82EFF2485D0082F10E0AE
:107EA000102F00270E291F29000F111F8ED06801E7
:107EB0006FC0863521F484E090D080E0DECF843638
:107EC00009F040C070D06FD0082F6DD080E0C81688
:107ED00080E7D80618F4F601B7BEE895C0E0D1E017
:107EE00062D089930C17E1F7F0E0CF16F0E7DF06D8
:107EF00018F0F601B7BEE89568D007B600FCFDCFD4
:107F0000A601A0E0B1E02C9130E011968C91119780
:107F100090E0982F8827822B932B1296FA010C0160
:107F200087BEE89511244E5F5F4FF1E0A038BF0790
:107F300051F7F601A7BEE89507B600FCFDCF97BE46
:107F4000E89526C08437B1F42ED02DD0F82E2BD052
:107F50003CD0F601EF2C8F010F5F1F4F84911BD097
:107F6000EA94F801C1F70894C11CD11CFA94CF0C13
:107F7000D11C0EC0853739F428D08EE10CD085E9AC
:107F80000AD08FE07ACF813511F488E018D01DD067
:107F900080E101D065CF982F8091C00085FFFCCF94
:107FA0009093C60008958091C00087FFFCCF809118
:107FB000C00084FD01C0A8958091C6000895E0E648
:107FC000F0E098E1908380830895EDDF803219F02E
:107FD00088E0F5DFFFCF84E1DECF1F93182FE3DFCA
:107FE0001150E9F7F2DF1F91089580E0E8DFEE27F6
:047FF000FF270994CA
:027FFE00040479
:00000001FF
