:100000000C9466000C948E000C948E000C941D0EC3
:100010000C941D0E0C941D0E0C948E000C948E00EE
:100020000C948E000C948E000C948E000C948E0018
:100030000C948E000C948E000C948E000C948E0008
:100040000C94D30D0C948E000C94A10D0C947B0D8C
:100050000C948E000C948E000C948E000C948E00E8
:100060000C94950E0C948E000000000024002700D4
:100070002A0000000008000201000003040700003D
:100080000000000000004C75783A200000000000DD
:1000900023002600290000000000250028002B0076
:1000A000040404040404040402020202020203031E
:1000B0000303030301020408102040800102040826
:1000C0001020010204081020B40F801611241FBE56
:1000D000CFEFD8E0DEBFCDBF24E0A8E5B2E001C09D
:1000E0001D92A63CB207E1F712E0A0E0B1E0E0EA21
:1000F000F7E302C005900D92A835B107D9F710E0DB
:10010000C5E6D0E004C02197FE010E94BC19C436A8
:10011000D107C9F70E941C110C94C31B0C9400005A
:10012000EAE7F3E0A089B18982E08C93A485B585E4
:100130001C92A685B7858FEC8C93108EA489B58907
:1001400086E08C93A289B3898C9180618C93A2897B
:10015000B3898C9188608C93A289B3898C918068D3
:100160008C930288F389E02D80818F7D80830895B0
:10017000089508950895DC01ED91FC910190F081BE
:10018000E02D0994AF92BF92CF92DF92EF92FF924F
:100190000F931F93CF93DF936C017B018B01040FAF
:1001A000151FEB015E01AE18BF08C017D10759F04B
:1001B0006991D601ED91FC910190F081E02DC6018D
:1001C0000995892B79F7C501DF91CF911F910F9187
:1001D000FF90EF90DF90CF90BF90AF90089508957B
:1001E000FC01538D448D252F30E0842F90E0821B3D
:1001F000930B541710F0CF96089501970895FC01C2
:10020000918D828D981761F0A28DAE0FBF2FB11D19
:100210005D968C91928D9F5F9F73928F90E0089571
:100220008FEF9FEF0895FC01918D828D981731F02B
:10023000828DE80FF11D858D90E008958FEF9FEF7F
:100240000895FC01918D228D892F90E0805C9F4F55
:10025000821B91098F73992708958AE793E00E9482
:10026000210121E0892B09F420E0822F089580E00C
:1002700090E0892B29F00E942D0181110C9400003F
:100280000895FC01A48DA80FB92FB11DA35ABF4F2B
:100290002C91848D90E001968F739927848FA68985
:1002A000B7892C93A089B1898C91837080648C93D9
:1002B000938D848D981306C00288F389E02D808188
:1002C0008F7D80830895EF92FF920F931F93CF93BA
:1002D000DF93EC0181E0888F9B8D8C8D98131AC081
:1002E000E889F989808185FF15C09FB7F894EE8968
:1002F000FF896083E889F9898081837080648083C5
:100300009FBF81E090E0DF91CF911F910F91FF900F
:10031000EF900895F62E0B8D10E00F5F1F4F0F73B7
:100320001127E02E8C8D8E110CC00FB607FCFACF72
:10033000E889F989808185FFF5CFCE010E944101CE
:10034000F1CFEB8DEC0FFD2FF11DE35AFF4FF08243
:100350009FB7F8940B8FEA89FB8980818062CFCFA9
:10036000CF93DF93EC01888D8823B9F0AA89BB89EC
:10037000E889F9898C9185FD03C0808186FD0DC0D7
:100380000FB607FCF7CF8C9185FFF2CF808185FFF8
:10039000EDCFCE010E944101E9CFDF91CF910895C9
:1003A000833081F028F4813099F08230A9F00895EB
:1003B0008730A9F08830C9F08430B1F48091800092
:1003C0008F7D03C0809180008F7780938000089597
:1003D00084B58F7784BD089584B58F7DFBCF8091E0
:1003E000B0008F778093B00008958091B0008F7D2A
:1003F000F9CFCF93DF93282F30E0F901EE58FF4F6C
:100400008491F901EC54FF4FD491F901E056FF4F6C
:10041000C491CC23A1F081110E94D001EC2FF0E017
:10042000EE0FFF1FE457FF4FA591B491EC91ED2320
:1004300081E090E009F480E0DF91CF91089580E0C1
:1004400090E0FACF1F93CF93DF93282F30E0F9018C
:10045000EE58FF4F8491F901EC54FF4FD491F9010C
:10046000E056FF4FC491CC23A9F0162F81110E94B2
:10047000D001EC2FF0E0EE0FFF1FEA56FF4FA591E1
:10048000B4918FB7F894EC91111108C0D095DE2388
:10049000DC938FBFDF91CF911F910895DE2BF8CFB2
:1004A000CF93DF9390E0FC01EC54FF4F24918056F2
:1004B0009F4FFC0184918823D1F090E0880F991F11
:1004C000FC01E859FF4FA591B491FC01EA56FF4F9A
:1004D000C591D49161110EC09FB7F8948C91E22F11
:1004E000E0958E238C932881E223E8839FBFDF91E0
:1004F000CF9108958FB7F894EC91E22BEC938FBFD6
:10050000F6CF3FB7F8948091010390910203A09138
:100510000303B091040326B5A89B05C02F3F19F033
:100520000196A11DB11D3FBFBA2FA92F982F882773
:10053000BC01CD01620F711D811D911D42E0660F4E
:10054000771F881F991F4A95D1F708958F929F9220
:10055000AF92BF92CF92DF92EF92FF924B015C017C
:100560000E9481026B017C010E9481026C197D094D
:100570008E099F09683E734081059105A8F321E02B
:10058000821A9108A108B10888EEC80E83E0D81E2F
:10059000E11CF11C81149104A104B10429F7FF901E
:1005A000EF90DF90CF90BF90AF909F908F90089585
:1005B0002FB7F8946091FD027091FE028091FF02C6
:1005C000909100032FBF08952091070330910803F5
:1005D0002817390771F49091050380910603981745
:1005E00041F0E0910503F0E0E454FD4F808190E09C
:1005F00008958FEF9FEF0895EF92FF920F931F934F
:10060000CF93DF93DC015C96ED90FC905D97E11455
:10061000F10479F481E090E013969C938E93129705
:1006200090E080E0DF91CF911F910F91FF90EF90CC
:1006300008955196ED91FC91529750968C91509758
:10064000982F90950FB75E962C915E97122F12708F
:1006500021FD6095F8942081112319F1282B208326
:10066000E7012197F1F728E0462F50E0308160FF45
:100670001AC0382B3083E7012197F1F7BA0175953D
:100680006795215089F7112381F080818923808328
:100690000FBF5C968D919C910197F1F781E090E0FE
:1006A000C1CF2923DCCF3923E5CF9081892BEFCF30
:1006B00020910703309108032817390771F48091BE
:1006C00006032091050390E0805C9F4F821B9109F7
:1006D00060E470E00E949419089590E080E008952D
:1006E000209107033091080328173907B9F4909136
:1006F000050380910603981789F0E0910503F0E067
:10070000E454FD4F80812091050330E02F5F3F4F7F
:100710002F7333272093050390E008958FEF9FEF09
:100720000895CF92DF92EF92FF920F931F93CF9392
:10073000DF9301E713E0D0E0C0E00E94D8026093AD
:100740009D0470939E0480939F049093A00485E978
:1007500094E00E94700397FF25C00E94D802C090C9
:100760009D04D0909E04E0909F04F090A0046C192A
:100770007D098E099F09C0909904D0909A04E09059
:100780009B04F0909C046C157D058E059F05F8F286
:10079000CE01DF91CF911F910F91FF90EF90DF90ED
:1007A000CF900895F80181938F012196C930D1052A
:1007B00021F6EECF4F925F926F927F928F929F922F
:1007C000AF92BF92CF92DF92EF92FF92CF93DF93DF
:1007D000CDB7DEB728970FB6F894DEBF0FBECDBFFA
:1007E0005A01FC012581368121503109253031051E
:1007F00068F5220F331F220F331FF901E15FFE4F0F
:10080000208131814281538129833A834B835C83E8
:10081000FC0187819085412C512C26ED622E23E42A
:10082000722E80329105F1F080339105A1F0412CB8
:10083000512C38EC632E31E4732E409799F0412C03
:10084000512C80E8682E8FE3782E0CC020E030E039
:1008500048EC52E4D9CF412C90E5592E9AE1692E0B
:1008600096E4792E90E080E00E9404176B017C01F1
:10087000B50190E080E00E9404174B015C01A701E4
:1008800096010E94E9189B01AC0160E070E080E8ED
:100890009FE30E947C186D837E838F839887A501D8
:1008A0009401C701B6010E947C189B01AC016D81C7
:1008B0007E818F8198850E9465176B017C01A30161
:1008C000920169817A818B819C810E94651720E069
:1008D00030E04CEC53E40E94E9189B01AC01C701E5
:1008E000B6010E94E91828960FB6F894DEBF0FBE35
:1008F000CDBFDF91CF91FF90EF90DF90CF90BF9071
:10090000AF909F908F907F906F905F904F900895E1
:100910000895089520919902260F3327331F21321D
:100920003105ECF420916B03FC0190E080E0243071
:1009300069F082E00895A09199022191AC01475895
:100940005D4FA40FB52FB11D2C930196861798F318
:1009500080919902680F6093990280E0089581E088
:10096000089510926B0381E080934A03109245032F
:1009700061E082E10E94220261E083E10E942202A2
:10098000E9EBF0E080818E7F808380818D7F8083A2
:1009900088E48093B80085E48093BC000895CF93E9
:1009A000DF9391E0909378028823B9F0C091B8006A
:1009B000D091BA008091BC008A7B8093BC0060E03B
:1009C00082E10E94220260E083E10E9422020E94F2
:1009D000B104D093BA00C093B800DF91CF910895CD
:1009E000CF92DF92EF92FF920F931F93CF93DF93FB
:1009F000D82FC62F613208F098C00E9481026B0187
:100A00007C0180916B0381116BC081E080936B034B
:100A100080934A039FEF90934903109248039C0FE1
:100A2000909347038093460380914603DD0FD82BB4
:100A3000D093460380914503813009F078C010922D
:100A400045030E9481026B017C01809146038093E3
:100A5000BB0080916D0390916E03A0916F03B091E4
:100A60007003892B8A2B8B2BA1F00E9481020091AD
:100A70006D0310916E0320916F03309170036C1918
:100A80007D098E099F09061717072807390708F4FB
:100A900048C08091BC0083FDD8CF85EC8093BC001A
:100AA0000E9481026B017C0180916B03813009F40B
:100AB00040C0809148038C1710F4C0914803E5E2D0
:100AC000F3E0ABE4B3E080E08C1355C08C2FDF91F2
:100AD000CF911F910F91FF90EF90DF90CF900895ED
:100AE00080916D0390916E03A0916F03B09170039C
:100AF000892B8A2B8B2B09F484CF0E9481020091D1
:100B00006D0310916E0320916F03309170036C1987
:100B10007D098E099F09061717072807390708F06E
:100B200070CF80916C030E94CF04C0E0CFCF85EEE0
:100B3000B5CF80916D0390916E03A0916F03B0913A
:100B40007003892B8A2B8B2B09F4AECF0E94810274
:100B500000916D0310916E0320916F03309170032B
:100B60006C197D098E099F09061717072807390791
:100B700008F09ACFD6CF91919D938F5FA5CFE0914A
:100B8000240380912303E81730F4F0E0E55BFC4F89
:100B9000808190E008958FEF9FEF08959091240356
:100BA000809123032FEF3FEF981748F4E92FF0E0EF
:100BB000E55BFC4F208130E09F5F90932403C901E7
:100BC00008958091230390912403891B990B089524
:100BD000CF92DF92EF92FF920F931F93CF93DF9309
:100BE0007C01CB018A0120911C03222389F0EB01B7
:100BF0006B01C40ED51ECC15DD0569F06991D701D6
:100C0000ED91FC910190F081E02DC7010995F3CFA2
:100C1000642F0E948A04C801DF91CF911F910F9128
:100C2000FF90EF90DF90CF900895CF93DF931F92C6
:100C3000CDB7DEB7698320911C032223F9F0209100
:100C40002103203258F021E030E0FC01338322837D
:100C500090E080E00F90DF91CF9108958091220382
:100C6000E82FF0E0E85AFD4F998190838F5F8093E1
:100C700022038093210381E090E0ECCF61E0CE017C
:100C800001960E948A04F7CFCF92DF92EF92FF92F3
:100C90000F931F93CF93DF93D091210381E0D13243
:100CA00008F09CC0C0911B030E9481026B017C0173
:100CB00080916B0381116CC082E080936B0381E0B3
:100CC00080934A038FEF8093490310924803D09397
:100CD0004703A8E5B2E0E5E2F3E080E0D8138DC079
:100CE0001092460380914603CC0FC82BC093460355
:100CF00080914503813009F084C0109245030E9421
:100D000081026B017C01809146038093BB0080913E
:100D10006D0390916E03A0916F03B0917003892BC6
:100D20008A2B8B2BA1F00E94810200916D03109100
:100D30006E0320916F03309170036C197D098E0949
:100D40009F09061717072807390708F442C0809142
:100D5000BC0083FDD8CF85EC8093BC000E9481024B
:100D60006B017C0180916B03823009F44CC080914F
:100D700049038F3F09F469C080914903803209F427
:100D800066C080914903803309F463C084E026C0C3
:100D900080916D0390916E03A0916F03B0917003E9
:100DA000892B8A2B8B2B09F483CF0E94810200911F
:100DB0006D0310916E0320916F03309170036C19D5
:100DC0007D098E099F09061717072807390708F0BC
:100DD0006FCF80916C030E94CF0485E010922203B4
:100DE0001092210310921C03DF91CF911F910F915C
:100DF000FF90EF90DF90CF9008959D9191938F5F3A
:100E00006DCF85EEA9CF80916D0390916E03A09177
:100E10006F03B0917003892B8A2B8B2B09F4A2CF1F
:100E20000E94810200916D0310916E0320916F0367
:100E3000309170036C197D098E099F0906171707F9
:100E40002807390708F08ECFC4CF80E0C7CF82E0F3
:100E5000C5CF83E0C3CF1F93CF93DF93EC01142F53
:100E60008B819C8121E020931C0329E220931B03AA
:100E70001092220310922103DC01ED91FC9101906C
:100E8000F081E02D09958B819C81DC01ED91FC9135
:100E90000190F081E02D612F09958B819C81DF917C
:100EA000CF911F910C94440690E080E008950F9339
:100EB0001F93CF93DF93EC018B819C8121E02093E2
:100EC0001C0329E220931B0310922203109221039A
:100ED000DC01ED91FC910190F081E02D09958B8171
:100EE0009C810E94440662E089E20E94F004109214
:100EF0002403809323038B819C81DC01ED91FC9181
:100F00000284F385E02D09958C018B819C81DC01A5
:100F1000ED91FC910284F385E02D099520E0382FB6
:100F2000C801822B932BDF91CF911F910F910895D0
:100F30000F931F93CF93DF93EC0187E194E09C83A1
:100F40008B83109224031092230310922203109299
:100F500021030E94B10488EB90E0909320038093DA
:100F60001F0389EB90E090931E0380931D038B81F8
:100F70009C8111E010931C0329E220931B03DC01E8
:100F8000ED91FC910190F081E02D62EB09958B8150
:100F90009C810E94440661E089E20E94F004109264
:100FA0002403809323038B819C81DC01ED91FC91D0
:100FB0000284F385E02D09958035F9F41D871D81A4
:100FC0000E81CE010E940F081D830E834F81412B9D
:100FD00061EACE010E942B07CE010E94FF076F81BC
:100FE0007885CE010E945E08CE010E94FF0781E055
:100FF000DF91CF911F910F91089580E0F9CFCF93AA
:10100000DF93EC018D85811103C0CE010E9498070A
:1010100040E060EACE01DF91CF910C942B07CF9393
:10102000DF93EC018D85811103C0CE010E949807EA
:1010300043E960EACE01DF91CF910C942B07CF9268
:10104000DF92EF92FF92CF93DF93EC018D858111B8
:1010500003C0CE010E949807CE010E940F08F12C18
:101060008D819E81F816190609F044F468E770E056
:1010700080E090E00E94A602F394F2CF64EBCE01F0
:101080000E9457076C0166EBCE010E945707B0E043
:10109000A0E0DC0199278827F12CE12CC82AD92A65
:1010A000EA2AFB2ACE010E94FF07C701B601DF91A1
:1010B000CF91FF90EF90DF90CF9008950F931F9303
:1010C000CF93DF93EC01162F072F8D85811103C07D
:1010D000CE010E949807CE010E940F081F83088747
:1010E0004D81412B61EACE010E942B07CE01DF9199
:1010F000CF911F910F910C94FF07CF93DF93EC01D9
:1011000060E08E810E94220261E08E810E942202B4
:1011100060E08E810E9422028BE891E00197F1F756
:10112000DF91CF910895CF92DF92EF92FF920F93CC
:101130001F93CF93DF936C017C0187E0E80EF11CD5
:10114000D0E0C0E0062F10E0B8010C2E02C075956B
:1011500067950A94E2F76170F70181917F010E941F
:1011600022022196C430D10579F7C601DF91CF91D3
:101170001F910F91FF90EF90DF90CF900C947D081E
:10118000CF92DF92EF92FF920F931F93CF93DF9353
:10119000EC01F62E642F8C810E9422028D818F3FFC
:1011A00019F060E00E9422020F2D10E08F8584FF6D
:1011B00025C06E0187E0C80ED11CF12CE12CB801CE
:1011C0000E2C02C0759567950A94E2F76170F601DE
:1011D00081916F010E942202FFEFEF1AFF0A88E05F
:1011E000E816F10461F7CE01DF91CF911F910F91C5
:1011F000FF90EF90DF90CF900C947D08B80184E0D1
:10120000759567958A95E1F7CE010E9493086F2D39
:10121000CE01DF91CF911F910F91FF90EF90DF9062
:10122000CF900C94930840E0682F89E694E00C94EA
:10123000C008CF93DF93823029F4909178049860AE
:101240009093780480937C0410927D0480E48093D2
:101250007E0480E180937F0480E58093800461E0D8
:1012600080916D040E94500280916E048F3F19F0AE
:1012700061E00E94500261E080916F040E94500280
:10128000C9E6D4E09E01295634408091780484FD5B
:101290000BC084E090E021962817390744F461E000
:1012A0008E810E945002EECF88E090E0F4CF8BE375
:1012B0009DE00197F1F760E080916D040E942202A9
:1012C00060E080916F040E94220280916E048F3F43
:1012D00019F060E00E9422028091780484FD39C0F8
:1012E00063E089E694E00E949308CBE4D6E4CE0163
:1012F0000197F1F763E089E694E00E949308219753
:10130000F1F763E089E694E00E94930883E592E0B8
:101310000197F1F762E089E694E00E9493088091DA
:10132000780480620E94130984E0809379048CE041
:101330000E94130981E00E9413098BE39FE101974A
:10134000F1F782E080937A0486E0DF91CF910C94EC
:10135000130980620E9413098BE496E40197F1F768
:101360008091780480620E94130983E592E00197DE
:10137000F1F78091780480620E941309D0CF909198
:101380007C04691710F06FEF690FE62FF0E0E75962
:10139000FB4F9489890F80680C94130941E00E94E7
:1013A000C00881E090E00895FB0101900020E9F77A
:1013B0003197AF01461B570BDC01ED91FC91028088
:1013C000F381E02D09948F929F92AF92BF92EF929A
:1013D000FF920F931F93CF93DF93CDB7DEB7A19703
:1013E0000FB6F894DEBF0FBECDBF7C01FA01CB0172
:1013F00019A2223008F42AE08E010F5D1F4F822EC1
:10140000912CB12CA12CBF01A50194010E9423189D
:10141000F901CA016A300CF5605DD8016E938D0147
:10142000232B242B252B79F790E080E0109721F0D7
:10143000BD01C7010E94D409A1960FB6F894DEBF82
:101440000FBECDBFDF91CF911F910F91FF90EF9015
:10145000BF90AF909F908F900895695CDECFCF933F
:10146000DF93BC018AE793E00E94D409EC0163E7B3
:1014700071E08AE793E00E94D4098C0F9D1FDF91F1
:10148000CF9108958F929F92AF92BF92CF92DF92A9
:10149000FF920F931F93CF93DF9361E08091BA0483
:1014A0000E9422026AEF70E080E090E00E94A602B3
:1014B0000E94D8020091BD041091BE042091BF0487
:1014C0003091C004601771078207930740F41092AF
:1014D000BD041092BE041092BF041092C00420916B
:1014E000C104211112C00091BD041091BE042091CD
:1014F000BF043091C004601B710B820B930B603DE5
:1015000077408105910508F4A9C01092C1040E949A
:10151000D8026093BD047093BE048093BF0490937F
:10152000C0041092B8041092B7041092B60410923E
:10153000B5041092B40461E08091BA040E94500294
:1015400060E08091BA040E9422026AE070E080E0CC
:1015500090E00E94A60261E08091BA040E942202FB
:101560008BE990E00197F1F760E08091BA040E9466
:1015700050028091BA040E94F901892B29F086E774
:1015800091E00E942F0AF5CF8BE391E00197F1F7EC
:101590008091BA040E94F901892B29F486E991E02F
:1015A0000E942F0AF5CF8BE391E00197F1F704EB4E
:1015B00014E089EBC82E84E0D82E93E7A92EB12C35
:1015C00088248394912CC7E0D0E0F12C8091BA0458
:1015D0000E94F901892BD1F3C5010197F1F78091A0
:1015E000BA040E94F901892B39F0C4010C2E01C004
:1015F000880F0A94EAF7F82A8091BA040E94F90148
:10160000892BD1F7219710F7F801F1928F01CE16AF
:10161000DF06C9F68091B4049091B504890F99272B
:10162000991F4091B604840F911D4091B704480F53
:10163000592F511D2091B80430E081E04217130664
:1016400009F080E0DF91CF911F910F91FF90DF9023
:10165000CF90BF90AF909F908F90089581E0F2CF90
:101660002F923F924F925F926F927F928F929F92B2
:10167000AF92BF92CF92DF92EF92FF921F93CF93E0
:10168000DF93EC016A017B01722EAB019601CB0165
:10169000B6010E948F1966EB71E0811126C04601E8
:1016A0005701E894B7F82FEF3FEF4FE75FE7C50129
:1016B000B4010E948F1981110CC02FEF3FEF4FE74B
:1016C0005FE7C501B4010E94FF166AEB71E01816CE
:1016D00064F02FEF3FEF4FE75FE4C701B6010E94D0
:1016E0008A191816B4F46EEB71E0CE01DF91CF9138
:1016F0001F91FF90EF90DF90CF90BF90AF909F90A1
:101700008F907F906F905F904F903F902F900C94B0
:10171000D4092FEF3FEF4FE75FECC701B6010E94FE
:10172000FF1687FDE0CF20E030E0A901C701B60138
:101730000E94FF16312C212C87FF09C06DE2CE01DB
:101740000E94BB001C01F7FAF094F7F8F09410E047
:1017500060E070E080E09FE3711641F020E030E04F
:1017600040E251E40E94E9181F5FF6CFA7019601FD
:101770000E947D182B013C010E945B194B015C010A
:101780002AE0BC01A401CE010E94E3097C01E20C25
:10179000F31C1123C1F1C501B4010E9404179B0180
:1017A000AC01C301B2010E947C184B015C016EE2E6
:1017B000CE010E94BB00E80EF91E115020F120E07E
:1017C00030E040E251E4C501B4010E9465172B01ED
:1017D0003C010E945B194B01B12CA12C2AE0B50100
:1017E000A401CE010E94E309E80EF91EC501B4016F
:1017F0000E9404179B01AC01C301B2010E947C1836
:101800004B015C01DACFC701DF91CF911F91FF90AF
:10181000EF90DF90CF90BF90AF909F908F907F9090
:101820006F905F904F903F902F9008950C94D40943
:101830000C945E1AEF92FF920F931F93CF93DF9356
:1018400000D000D0CDB7DEB78AE793E00E94FF005A
:101850008AE793E00E94FF008E010F5F1F4F78011F
:101860008A3341F0F80181938F018AE793E00E9467
:10187000FF00F6CFC7010E94A416182F8AE793E055
:101880000E94FF008053990B8230910520F4682F4D
:10189000812F0E9422028AE793E00E94FF008A3093
:1018A00011F08D30C1F78AE793E00E9413018A306E
:1018B00021F48AE793E00E94FF000F900F900F90B1
:1018C0000F90DF91CF911F910F91FF90EF900895AE
:1018D0000F931F93CF93DF93EC0188819981009739
:1018E00059F02A813B812617370730F081E0DF91DC
:1018F000CF911F910F9108958B016F5F7F4F0E94D1
:10190000E71A009759F0998388831B830A832C81F7
:101910003D81232B59F7FC011082E8CF80E0E7CF0F
:101920000F931F93CF93DF938C01EB0188E2FB01B0
:1019300011928A95E9F74BE050E062EC71E0CE013C
:101940000E94B41B1B8681E090E0A0E0B0E08C8791
:101950009D87AE87BF87F80181859285A385B48571
:10196000888B998BAA8BBB8B85E090E0A0E0B0E0E0
:101970008C8B9D8BAE8BBF8B1CA21DA21EA21FA2A7
:1019800080E090EEABEAB7E4888F998FAA8FBB8F87
:101990001C8E1D8E1E8E1F8E8FE692E1A3E8BAE389
:1019A00088A399A3AAA3BBA3DF91CF911F910F9105
:1019B00008954F925F926F927F928F929F92AF9213
:1019C000BF92CF92DF92EF92FF920F931F93CF932C
:1019D000DF938C01EB010E941F08C8010E941F08C1
:1019E0002B013C016301EE24FF24FE01349680E2CA
:1019F000DF011D928A95E9F784E290E0A0E0B0E073
:101A000088839983AA83BB83F80181859285A38506
:101A1000B4858C839D83AE83BF8385E090E0A0E096
:101A2000B0E088879987AA87BB870E94D802688B15
:101A3000798B8A8B9B8BFFEF4F165F06F9F08FEF48
:101A4000C816D806D9F0A601B201C8010E94DA036F
:101A50006C8B7D8B8E8B9F8B81E0DF91CF911F9163
:101A60000F91FF90EF90DF90CF90BF90AF909F903D
:101A70008F907F906F905F904F90089560E070E03E
:101A800080E89FEBE5CF85ED8093BC0080916D03EE
:101A900090916E03A0916F03B09170030796A11D02
:101AA000B11D23E0B695A795979587952A95D1F70F
:101AB0002091BC0024FD03C010926B030895409157
:101AC0006D0350916E0360916F0370917003452B0D
:101AD000462B472B69F30097A105B10541F025E39B
:101AE0002A95F1F700000197A109B109E1CF809192
:101AF0006C030C94CF041F920F920FB60F92112417
:101B00002F933F934F935F936F937F938F939F9305
:101B1000AF93BF93EF93FF938AE793E00E94410155
:101B2000FF91EF91BF91AF919F918F917F916F91B5
:101B30005F914F913F912F910F900FBE0F901F908B
:101B400018951F920F920FB60F9211242F938F9317
:101B50009F93EF93FF93E0918A03F0918B03808131
:101B6000E0919003F091910382FD1BC090818091E0
:101B700093038F5F8F7320919403821741F0E0915C
:101B80009303F0E0E658FC4F958F80939303FF9109
:101B9000EF919F918F912F910F900FBE0F901F90FB
:101BA00018958081F4CF1F920F920FB60F921124D7
:101BB0002F933F938F939F93AF93BF938091FD0299
:101BC0009091FE02A091FF02B09100033091FC02BF
:101BD00023E0230F2D3758F50196A11DB11D209349
:101BE000FC028093FD029093FE02A093FF02B0934B
:101BF00000038091010390910203A0910303B0912F
:101C000004030196A11DB11D80930103909302036B
:101C1000A0930303B0930403BF91AF919F918F9161
:101C20003F912F910F900FBE0F901F90189526E8AF
:101C3000230F0296A11DB11DD2CF1F920F920FB696
:101C40000F9211242F933F934F935F936F937F9342
:101C50008F939F93AF93BF93EF93FF93E09107030D
:101C6000F0910803309749F0A685B7858585968D54
:101C700091FF14C09C918923A1F4FF91EF91BF9132
:101C8000AF919F918F917F916F915F914F913F9114
:101C90002F910F900FBE0F901F9018959C91892344
:101CA00061F7A389B4899C918589809589238C9358
:101CB000868997890197F1F7608D718DA685B78523
:101CC000558538E020E0CB010197F1F7822F90E0B5
:101CD00095958795282F4C91452309F02068315020
:101CE00091F7868D81FD20958091060390E0019605
:101CF0008F73992730910503381799F0A091060347
:101D0000B0E0A454BD4F2C9380930603828D938D35
:101D10000197F1F7A389B4898C919589892B8C93CC
:101D2000ACCF868D8160868FF1CF1F920F920FB658
:101D30000F9211242F933F934F935F936F937F9351
:101D40008F939F93AF93BF93EF93FF938091B900CD
:101D5000887F803609F44AC0F0F5883209F4A7C0BC
:101D600018F5803109F49BC0B8F4882309F4F9C050
:101D7000883009F494C0FF91EF91BF91AF919F918A
:101D80008F917F916F915F914F913F912F910F9024
:101D90000FBE0F901F901895883109F488C08032CB
:101DA00051F78093490314C0803409F49DC040F476
:101DB0008033B9F38833F9F68093490385ECB0C0DA
:101DC000803509F485C0883509F496C0883499F6C1
:101DD0000E94430DD0CF883909F48CC038F588377C
:101DE00029F050F4883611F0803729F683E080938B
:101DF0006B031092BB0257C0883809F47BC080394E
:101E000019F0803809F0B7CF8091BB02803208F01A
:101E100071C0E091BB0281E08E0F8093BB02809184
:101E2000BB00F0E0E556FD4F80833DC0803B39F0BC
:101E3000E0F4803A09F479C0883A09F09CCF84E054
:101E400080936B0310929A0210929902E0911F0303
:101E5000F091200309958091990281110FC081E0D2
:101E6000809399021092790209C0803C09F4A6CFB0
:101E7000883C09F4A3CF883B09F07DCFE0919A021A
:101E800081E08E0F80939A02F0E0E758FD4F808149
:101E90008093BB0090919A028091990229C0809111
:101EA00046038093BB0085EC8093BC0064CF909187
:101EB000480380914703981758F5E091480381E063
:101EC0008E0F80934803F0E0EB5DFC4F8081E9CFFB
:101ED000E091480381E08E0F809348038091BB001E
:101EE000F0E0EB5DFC4F80839091480380914703C5
:101EF0009817C8F285E8D8CFE091480381E08E0FAB
:101F0000809348038091BB00F0E0EB5DFC4F808341
:101F100080914A0381115CCF81E08093450384EA7C
:101F20008093BC0010926B0326CF85EC8093BC009D
:101F300010926B038091BB02803230F4E091BB02BF
:101F4000F0E0E556FD4F10826091BB0270E0E09139
:101F50001D03F0911E038BE992E009951092BB02DC
:101F60000ACF1092490334CF10927D0310927C0364
:101F700048EE53E060E070E040937E0350937F03AF
:101F8000609380037093810387E291E090937B03D9
:101F900080937A0385EC90E0909387038093860387
:101FA00084EC90E0909389038093880380EC90E028
:101FB00090938B0380938A0381EC90E090938D0340
:101FC00080938C0382EC90E090938F0380938E0338
:101FD00086EC90E09093910380939003109293038A
:101FE00010929403109295031092960310921A0483
:101FF0001092190440931B0450931C0460931D0419
:1020000070931E0489E391E0909318048093170461
:102010001092290410922A0410922B0410922C047E
:1020200010922D0410922E0410922F04109230045E
:10203000109231041092320410923304109234043E
:10204000109235041092360410923704109238041E
:1020500088E08093BA0486E18093BB0486E0809395
:10206000BC0491E09093C1041092980410929704DC
:102070004093990450939A0460939B0470939C043A
:1020800025E631E030939604209395041092AC0439
:102090001092AB041092AE041092AD041092B004F2
:1020A0001092AF041092B2041092B1048091B30464
:1020B0008E7F8D7F8093B30486958170682F69270A
:1020C0008FE00E94220261E08FE00E945002E3EC68
:1020D000F0E0E491E093A504EFEAF0E0E491F0E0B1
:1020E000EE0FFF1FEA56FF4F859194919093A7043E
:1020F0008093A60460E08EE00E9450028091B304B9
:1021000081FD04C061E08EE00E9422028EE0809397
:10211000A104E2ECF0E0E491E093A204EEEAF0E046
:10212000E491F0E0EE0FFF1FE457FF4F859194918B
:102130009093A4048093A3041092900410928F04AF
:1021400010929204109291041092940410929304AD
:1021500061E070E08FE894E00E94680C20918F04A9
:102160003091900481115CC02115310519F0C9012D
:102170000E945E1A1092900410928F0410929404A0
:1021800010929304109292041092910487E591E0CA
:10219000909382048093810410928E04109287049D
:1021A0001092860480E190E09093890480938804E3
:1021B0008FE19AE0A0E0B0E080938A0490938B04D2
:1021C000A0938C04B0938D0410926C0410926B0455
:1021D0008BE491E090936A048093690482E0809399
:1021E0006D048FEF80936E0483E080936F0484E02E
:1021F0008093700485E08093710486E0809372047C
:1022000087E0809373041092740410927504109206
:102210007604109277041092780481E00C941909E6
:1022200081E090E0909394048093930462E572E0DF
:10223000C9010E94AD1BAACFCF93DF93CDB7DEB704
:1022400068970FB6F894DEBF0FBECDBF789484B503
:10225000826084BD84B5816084BD85B5826085BDA2
:1022600085B5816085BD80916E00816080936E0030
:102270001092810080918100826080938100809122
:1022800081008160809381008091800081608093D3
:1022900080008091B10084608093B1008091B00093
:1022A00081608093B00080917A00846080937A008E
:1022B00080917A00826080937A0080917A008160B8
:1022C00080937A0080917A00806880937A001092DF
:1022D000C100109265041092660410926704109277
:1022E000680410922504109226041092270410927C
:1022F00028040E94D8026B017C014B015C0128EB91
:10230000820E2BE0921EA11CB11C0E94D8026C15FB
:102310007D058E059F0528F086169706A806B90646
:10232000A0F768EE73E080E090E00E94A6020E94B1
:1023300090000E94D8026093250470932604809335
:102340002704909328046AEC71E08AE793E00E94E6
:10235000160C0E94D8026B017C014B015C013AE033
:10236000830E911CA11CB11C0E94D8026C157D0526
:102370008E059F0528F086169706A806B906A0F7D1
:1023800081E0809339040E94D80260932504709301
:10239000260480932704909328046BED71E08AE76C
:1023A00093E00E94160C0E9490001092B0041092CC
:1023B000AF041092AE041092AD041092AC041092CF
:1023C000AB048DE991E09093B2048093B1049091B5
:1023D000A104963108F047C02DEB30E03093AC04F7
:1023E0002093AB042BE931E03093AE042093AD048D
:1023F0002CE231E03093B0042093AF0420916800C8
:1024000084E0983048F031E09E3008F430E081E01C
:1024100001C0880F3A95EAF7822B809368002DE679
:1024200030E0983050F02BE630E09E3030F02CE673
:1024300030E0963110F030E020E03093A904209392
:10244000A804292F30E0983008F0F3C181E001C0E2
:10245000880F9A95EAF78093AA048091B10490912D
:10246000B2040197F1F78091AF049091B004892BE9
:1024700049F1E0910703F091080344E0E539F407DE
:1024800009F1309739F0A389B4899C9185898095A9
:1024900089238C938091B3048E7F8093B304109230
:1024A00006031092050385E994E090930803809356
:1024B0000703E091A804F091A90480819091AA04F7
:1024C000892B808360E08091BA040E94500261E011
:1024D0008091BA040E9422021092BD041092BE04A0
:1024E0001092BF041092C00481E894E00E94980703
:1024F00060E170E081E894E00E945E0880918E04C3
:10250000811104C081E894E00E94980781E894E07A
:102510000E940F0882E090E09093870480938604E5
:1025200040918804426061EA81E894E00E942B07B0
:1025300081E894E00E94FF0749E050E060E071E02C
:1025400085E994E00E94C2000E94910340917903C2
:102550008091720390917303682F690F7727771F1B
:1025600080917403860F972F911D20917503820F20
:10257000911D20917603280F392F311D809177030B
:10258000280F311D80917803820F932F911D919513
:102590008195910999274817190609F057C182EECC
:1025A00091E00E942F0A82E00E94190981E00E94B6
:1025B00013098BE39FE10197F1F760E080E00E944F
:1025C000BF0965EE71E089E694E00E94160C60E0B8
:1025D00087E00E94BF096CEE71E089E694E00E94FA
:1025E000160C61E080E00E94BF0965EF71E089E6AA
:1025F00094E00E94160C61E087E00E94BF096CEF36
:1026000071E089E694E00E94160C8E010F5F1F4F67
:1026100090E0292E90E0392E24EF422E5524539439
:10262000612C712C0E94D802672B682B692B09F44E
:102630001AC10E94D802C0901703D0901803E090EE
:102640001903F0901A036C157D058E059F0508F49B
:10265000B7C1C0901703D0901803E0901903F09011
:102660001A039B01AC012C193D094E095F09690150
:102670007A013AEFC316D104E104F10408F4FBC077
:1026800060931703709318038093190390931A03B0
:1026900040923104509232046092330470923404B8
:1026A00010923504109236041092370410923804B8
:1026B0008091290490912A04A0912B04B0912C04BC
:1026C00080932D0490932E04A0932F04B093300494
:1026D0000E94D8026093290470932A0480932B04EB
:1026E00090932C048AE793E00E941301843611F43E
:1026F0000E941A0C0E94D80260932504709326044D
:1027000080932704909328040E94D8026B017C01D7
:1027100065E072E08AE793E00E94160C2AE041E04F
:1027200050E060E070E08AE793E00E94E3096CE02B
:1027300072E08AE793E00E94160C2AE0B701A60136
:102740008AE793E00E94E3096EE072E08AE793E093
:102750000E94160C8091290490912A04A0912B04C8
:10276000B0912C04B701A601481B590B6A0B7B0BD7
:102770002AE08AE793E00E94E3096EE072E08AE7CC
:1027800093E00E94160C4091290450912A04609114
:102790002B0470912C0480912D0490912E04A09113
:1027A0002F04B0913004481B590B6A0B7B0B2AE0B5
:1027B0008AE793E00E94E30960E172E08AE793E030
:1027C0000E94160C0E94D802AB01BC012AE08AE7E5
:1027D00093E00E94E30982E192E00E942F0A0E94A6
:1027E000D8024B015C017C016B0145E0C40ED11C99
:1027F000E11CF11C0E94D802681579058A059B0529
:1028000028F0C616D706E806F906A0F78AE793E08F
:102810000E941301843611F40E941A0C0E94D802FF
:102820006093290470932A0480932B0490932C04C2
:1028300022C09E3040F42850310981E001C0880F49
:102840002A95EAF708CE2E503109F7CF85E994E0B2
:102850000E945803181619060CF0A5CE85E994E0DD
:102860000E947003F3CF0E94D80262307105810587
:10287000910508F0DECE49E050E060E071E085E9C6
:1028800094E00E94C2000E94910380917303909192
:10289000740398278927982790930A038093090344
:1028A0001C8A1B8A1E8A1D8A188E1F8A4AE0B8015C
:1028B0000E94C216F80101900020E9F731977F01CC
:1028C000E01AF10AB701CE0143960E94680C2B89E9
:1028D0003C8981117EC02115310519F0C9010E9482
:1028E0005E1A1C8A1B8A188E1F8A1E8A1D8A809176
:1028F0008F0490919004009709F474C06B897C89CF
:102900006115710509F46CC04091910450919204D5
:102910002F89388D4217530708F462C00E94AD1BFF
:102920008F89988D9093940480939304188E1F8AB6
:102930008B899C89009711F00E945E1A69E172E010
:102940008AE793E00E94160CC0900903D0900A0316
:102950000D2C000CEE08FF082AE0B701A601F7FED7
:102960000DC06DE28AE793E00E94BB004427552723
:10297000BA014C195D096E097F092AE08AE793E0E4
:102980000E94E30963E771E08AE793E00E94D409BB
:102990000E94420A882349F08091BB048B30C9F120
:1029A00020F08551823008F45BC06EE172E08AE766
:1029B00093E00E94160C60E070E080EC9FE730C06E
:1029C00060931703709318038093190390931A036D
:1029D00040CEF88EEF8AB801C9010E94AD1B87CFA7
:1029E0000E945E1A8B899C899093900480938F0437
:1029F0008D899E8990939204809391048F89988DFC
:102A000090939404809393041C8A1B8A1E8A1D8AC7
:102A10008DCF6091B40470E090E080E00E940417D4
:102A200060930F037093100380931103909312032C
:102A30000E94420A882349F08091BB048B3089F1BF
:102A400020F08551823008F406C16EE172E08AE719
:102A500093E00E94160C60E070E080EC9FE728C0D5
:102A60006091B40470E090E080E00E94041720E0E0
:102A700030E040E853E40E9465176B017C016091EF
:102A8000B50470E090E080E00E940617A70196016F
:102A90000E947D1820E030E040E251E40E94E918F5
:102AA000BFCF6091B60470E090E080E00E94041710
:102AB000609313037093140380931503909316038C
:102AC0009B01AC010E948F1981110FC060910F030F
:102AD0007091100380911103909112039B01AC013E
:102AE0000E948F19882309F4DCC088E292E00E94DA
:102AF0002F0A81E894E00E941F086B015B0160E0EF
:102B000070E080E89FEB5FEFC516D50639F050E026
:102B100040E0B60181E894E00E94DA030E945B196C
:102B200060930B0370930C0380930D0390930E033B
:102B300086E8882E80E0982EF4016491662349F09F
:102B40008AE793E00E946301FFEF8F1A9F0A892BA7
:102B500099F740E050E060E87FEBAB20A09449F0AB
:102B600050E040E0B60181E894E00E94DA03AB0156
:102B7000BC0126E08AE793E00E94300B63E771E036
:102B80008AE793E00E94D40960E080E00E94BF09D8
:102B90004091130350911403609115037091160333
:102BA00022E089E694E00E94300B61E080E00E9420
:102BB000BF0940910F035091100360911103709170
:102BC000120322E089E694E00E94300B60E087E087
:102BD0000E94BF0940910B0350910C0360910D03BB
:102BE00070910E032AE089E694E00E94E30961E017
:102BF00087E00E94BF09C0900903D0900A030D2C02
:102C0000000CEE08FF082AE0B701A601F7FE0DC090
:102C10006DE289E694E00E94BB0044275527BA0183
:102C20004C195D096E097F092AE089E694E00E944B
:102C3000E30960ED77E080E090E00E94A6022114B5
:102C4000310409F4EFCC0E942D01882309F4EACC69
:102C50000E940000E7CCF090B6046F2D6F7770E013
:102C600090E080E00E94061720E030E040E853E466
:102C70000E9465174B015C016091B70470E090E021
:102C800080E00E940617A50194010E947D1820E0B3
:102C900030E040E251E40E94E918F7FE09CF905875
:102CA00007CF63E372E08AE793E00E94160C40913D
:102CB0000F0350911003609111037091120322E0F1
:102CC0008AE793E00E94300B62E472E08AE793E0C7
:102CD0000E94160C66E472E08AE793E00E94160CEC
:102CE00040911303509114036091150370911603E2
:102CF00022E08AE793E00E94300B84E592E0F7CE71
:102D000080918F0490919004009711F00E945E1AB8
:102D100085E691E090939604809395048091070353
:102D2000909108038559944071F4E091A804F091C2
:102D3000A90490818091AA048095892380831092B0
:102D40000803109207030895FC0188279927E89447
:102D500021912032E9F3293010F02E30C8F32B32C4
:102D600041F02D3239F4689404C00E94CD16820FD0
:102D7000911D219120532A30C0F31EF49095819526
:102D80009F4F0895BB274A3031F4992322F4BDE2C6
:102D9000909581959F4F0C94D6167AE0979F902D31
:102DA000879F802D910D11240895BB27FB01552786
:102DB000AA27880F991FAA1FA41710F0A41B839598
:102DC0005051B9F7A05DAA3308F0A95DA19300970F
:102DD00079F7B111B1931192CB010C94EF16DC018C
:102DE000FC01672F71917723E1F7329704C07C9142
:102DF0006D9370836291AE17BF07C8F308950E9468
:102E0000411708F481E00895E89409C097FB3EF467
:102E100090958095709561957F4F8F4F9F4F992327
:102E2000A9F0F92F96E9BB279395F69587957795A5
:102E30006795B795F111F8CFFAF4BB0F11F460FF65
:102E40001BC06F5F7F4F8F4F9F4F16C0882311F0BD
:102E500096E911C0772321F09EE8872F762F05C0D1
:102E6000662371F096E8862F70E060E02AF09A956C
:102E7000660F771F881FDAF7880F9695879597F961
:102E80000895990F0008550FAA0BE0E8FEEF1616FB
:102E90001706E807F907C0F012161306E407F5074E
:102EA00098F0621B730B840B950B39F40A2661F0C2
:102EB000232B242B252B21F408950A2609F4A14065
:102EC000A6958FEF811D811D08950E9478170C949F
:102ED000E9170E94DB1738F00E94E21720F09523D3
:102EE00011F00C94D2170C94D81711240C941D18BF
:102EF0000E94FA1770F3959FC1F3950F50E0551F8C
:102F0000629FF001729FBB27F00DB11D639FAA273E
:102F1000F00DB11DAA1F649F6627B00DA11D661F8D
:102F2000829F2227B00DA11D621F739FB00DA11DAE
:102F3000621F839FA00D611D221F749F3327A00D68
:102F4000611D231F849F600D211D822F762F6A2F04
:102F500011249F5750409AF0F1F088234AF0EE0F69
:102F6000FF1FBB1F661F771F881F91505040A9F796
:102F70009E3F510580F00C94D2170C941D185F3FB2
:102F8000E4F3983ED4F3869577956795B795F795D2
:102F9000E7959F5FC1F7FE2B880F911D969587954A
:102FA00097F9089597F99F6780E870E060E00895C9
:102FB0009FEF80EC089500240A9416161706180651
:102FC0000906089500240A9412161306140605062D
:102FD0000895092E0394000C11F4882352F0BB0FBE
:102FE00040F4BF2B11F460FF04C06F5F7F4F8F4F21
:102FF0009F4F089557FD9058440F551F59F05F3F5C
:1030000071F04795880F97FB991F61F09F3F79F00A
:1030100087950895121613061406551FF2CF46958C
:10302000F1DF08C0161617061806991FF1CF86950E
:103030007105610508940895E894BB2766277727F2
:10304000CB0197F90895A1E21A2EAA1BBB1BFD0123
:103050000DC0AA1FBB1FEE1FFF1FA217B307E40777
:10306000F50720F0A21BB30BE40BF50B661F771FCF
:10307000881F991F1A9469F76095709580959095AF
:103080009B01AC01BD01CF0108952F923F924F9259
:103090005F926F927F928F929F92AF92BF92CF92E8
:1030A000DF92EF92FF920F931F93CF93DF93CDB7F1
:1030B000DEB7CA1BDB0B0FB6F894DEBF0FBECDBF69
:1030C00009942A88398848885F846E847D848C843A
:1030D0009B84AA84B984C884DF80EE80FD800C8143
:1030E0001B81AA81B981CE0FD11D0FB6F894DEBF26
:1030F0000FBECDBFED0108955058BB27AA270E94EF
:1031000094180C94E9170E94DB1738F00E94E2171C
:1031100020F039F49F3F19F426F40C94D8170EF4DC
:10312000E095E7FB0C94D217E92F0E94FA1758F3A9
:10313000BA17620773078407950720F079F4A6F59C
:103140000C941C180EF4E0950B2EBA2FA02D0B0139
:10315000B90190010C01CA01A0011124FF27591BDC
:1031600099F0593F50F4503E68F11A16F040A22FE2
:10317000232F342F4427585FF3CF46953795279553
:10318000A795F0405395C9F77EF41F16BA0B620B52
:10319000730B840BBAF09150A1F0FF0FBB1F661F99
:1031A000771F881FC2F70EC0BA0F621F731F841FDC
:1031B00048F4879577956795B795F7959E3F08F002
:1031C000B0CF9395880F08F09927EE0F97958795C4
:1031D00008950E94FD180C94E9170E94E21758F018
:1031E0000E94DB1740F029F45F3F29F00C94D217BE
:1031F00051110C941D180C94D8170E94FA1768F3FB
:103200009923B1F3552391F3951B550BBB27AA279F
:1032100062177307840738F09F5F5F4F220F331FD9
:10322000441FAA1FA9F335D00E2E3AF0E0E832D0A1
:1032300091505040E695001CCAF72BD0FE2F29D0A4
:10324000660F771F881FBB1F261737074807AB0776
:10325000B0E809F0BB0B802DBF01FF2793585F4FEB
:103260003AF09E3F510578F00C94D2170C941D183B
:103270005F3FE4F3983ED4F3869577956795B795CD
:10328000F7959F5FC9F7880F911D9695879597F9D8
:103290000895E1E0660F771F881FBB1F6217730751
:1032A0008407BA0720F0621B730B840BBA0BEE1F66
:1032B00088F7E09508950E94021888F09F5798F0CB
:1032C000B92F9927B751B0F0E1F0660F771F881F2B
:1032D000991F1AF0BA95C9F714C0B13091F00E9445
:1032E0001C18B1E008950C941C18672F782F8827BC
:1032F000B85F39F0B93FCCF3869577956795B3956C
:10330000D9F73EF490958095709561957F4F8F4FDA
:103310009F4F08950E94411708F48FEF08950E946F
:103320004117880B990B089597FB072E16F400940C
:1033300007D077FD09D00E94A81907FC05D03EF4FC
:10334000909581959F4F0895709561957F4F089551
:10335000AA1BBB1B51E107C0AA1FBB1FA617B707BB
:1033600010F0A61BB70B881F991F5A95A9F78095D7
:103370009095BC01CD010895EE0FFF1F0590F491CB
:10338000E02D09940F931F93CF93DF938230910523
:1033900010F482E090E0E091C404F091C50430E0C4
:1033A00020E0B0E0A0E0309799F42115310509F450
:1033B0004AC0281B390B24303105D8F58A819B81FE
:1033C0006115710589F1FB0193838283FE0111C0B0
:1033D000408151810281138148175907E0F0481755
:1033E000590799F4109761F012960C93129713965F
:1033F0001C933296CF01DF91CF911F910F910895C9
:103400000093C4041093C504F4CF2115310551F085
:103410004217530738F0A901DB019A01BD01DF0112
:10342000F801C1CFEF01F9CF9093C5048093C40494
:10343000CDCFFE01E20FF31F81939193225031090A
:1034400039832883D7CF2091C2043091C304232B22
:1034500041F420910B0130910C013093C30420936F
:10346000C2042091090130910A012115310541F46E
:103470002DB73EB740910D0150910E01241B350B25
:10348000E091C204F091C304E217F307A0F42E1BED
:103490003F0B2817390778F0AC014E5F5F4F2417B8
:1034A000350748F04E0F5F1F5093C3044093C2048A
:1034B000819391939FCFF0E0E0E09CCFCF93DF9397
:1034C0000097E9F0FC01329713821282A091C404A4
:1034D000B091C504ED0130E020E01097A1F4208107
:1034E0003181820F931F2091C2043091C3042817A9
:1034F000390709F061C0F093C304E093C204DF917F
:10350000CF910895EA01CE17DF07E8F54A815B8184
:103510009E0141155105B1F7E901FB83EA83499109
:103520005991C40FD51FEC17FD0761F4808191817B
:103530000296840F951FE901998388838281938184
:103540009B838A83F0E0E0E012968D919C91139723
:103550000097B9F52D913C911197CD010296820FFC
:10356000931F2091C2043091C3042817390739F6FC
:10357000309751F51092C5041092C404B093C3045F
:10358000A093C204BCCFD383C28340815181840FF6
:10359000951FC817D90761F44E5F5F4F88819981E5
:1035A000480F591F518340838A819B819383828373
:1035B0002115310509F0B0CFF093C504E093C404A0
:1035C0009ECFFD01DC01C0CF13821282D7CFB0E0C5
:1035D000A0E0EDEEFAE10C9447188C01009751F44D
:1035E000CB010E94C2198C01C801CDB7DEB7E0E162
:1035F0000C946318FC01E60FF71F9C01225031095F
:10360000E217F30708F49DC0D901CD91DC91119721
:10361000C617D70798F0C530D10530F3CE0104970F
:103620008617970708F3C61BD70B2297C193D19330
:103630006D937C93CF010E945E1AD6CF5B01AC1ACA
:10364000BD0A4C018C0E9D1EA091C404B091C5040E
:10365000512C412CF12CE12C109731F58091C204B2
:103660009091C3048815990509F05CC04616570669
:1036700008F058C08091090190910A01009741F427
:103680008DB79EB740910D0150910E01841B950B93
:10369000E817F90708F055C0F093C304E093C2049B
:1036A000F90171836083A0CF8D919C91119712963F
:1036B0006C90129713967C901397A815B90559F53D
:1036C0006C0142E0C40ED11CCA14DB0420F1AC0131
:1036D0004A195B09DA011296159780F062827382AB
:1036E00051834083D9016D937C93E114F10471F00F
:1036F000D7011396FC93EE93129776CF22968C0FF8
:103700009D1FF90191838083F301EFCFF093C504EE
:10371000E093C40469CF4816590608F42C017D01D2
:10372000D3019ACFCB010E94C2197C01009749F0C6
:10373000AE01B8010E94A41BC8010E945E1A870155
:1037400053CF10E000E050CFFB01DC0102C001903C
:103750000D9241505040D8F70895FB01DC010190D3
:103760000D920020E1F70895FB01DC01415050402B
:1037700048F001900D920020C9F701C01D92415000
:103780005040E0F7089510E0C5E6D0E004C0FE0127
:103790000E94BC192196C636D107C9F7F894FFCF0D
:1037A000FF01860000000000790000C604800000D0
:1037B000004843000096430000C8430000FA43005D
:1037C000001644000000006301C200F000B00121B7
:1037D00001FF001301000000001506E8055407EF83
:1037E00000E105CE05BF0500000000CE09C200546F
:1037F00007BA00000000008804180C8904D90C9056
:103800000C00000000FC02C2005407EF00580370D7
:1038100003E4020D0A00646874313120737461722C
:103820007420636F6E646974696F6E2031206E6FEF
:1038300074206D6574006468743131207374617232
:103840007420636F6E646974696F6E2032206E6FCE
:1038500074206D6574006E616E00696E66006F762F
:10386000660054534C3235393100564D4450565F42
:10387000317C315F564D4450560A00564D445052EB
:103880005F004F4B00302E3030204300302E303060
:10389000206C757800302E303020250030303030EC
:1038A00020434F3200564D4450455F003A323A00B3
:1038B0007C005F564D4450450050504D20005265ED
:1038C0006164206661696C0042C582C485642044DD
:1038D00048540057696C676F746E6FC59BC4873A14
:1038E00020002025090054656D7065726174757241
:0838F000613A2000202A430088
:00000001FF
